:020000041004E6
:1020000000600020F5C10410C1C40410C3C4041052
:10201000AA5555AA45554C4200000000000000009A
:10202000000000000000000000000000CBC404100D
:10203000000000000000000067C00410CDC40410C0
:1020400011C5041069C00410000000000000000069
:1020500085C504106BC0041087C5041075C004103A
:102060000000000000000000000000000000000070
:102070000000000077C0041079C004107BC0041079
:10208000000000006DC0041051C504106FC00410A2
:1020900071C0041073C0041065C00410E5C40410BE
:1020A0000000000000000000000000000000000030
:1020B0000000000000000000000000000000000020
:1020C000EFF31482EFF309811C4880F31488BFF307
:1020D0006F8FF0B543464C4655465E466746F8B4AA
:1020E000174CEFF30883236006B4164C2068164C97
:1020F0002060164C2068164C2060164C2068164C48
:102100002060164C276800202060BFF34F8F30BF3F
:1021100027600B4C246884F3088882B003BCF8BCA9
:102120009846A146AA46B346BC46F0BC04BC80F320
:10213000098881F31488BFF36F8F104700000000F7
:102140000800002004ED00E07824002024ED00E0E9
:102150006C24002000E200E07C24002008002040E5
:1021600002B4714649084900095C49008E4402BC2A
:102170007047C04603B47146490840004900095EF3
:1021800049008E4403BC7047002243088B4274D33D
:1021900003098B425FD3030A8B4244D3030B8B4268
:1021A00028D3030C8B420DD3FF22090212BA030C71
:1021B0008B4202D31212090265D0030B8B4219D352
:1021C00000E0090AC30B8B4201D3CB03C01A524172
:1021D000830B8B4201D38B03C01A5241430B8B42BA
:1021E00001D34B03C01A5241030B8B4201D30B03A3
:1021F000C01A5241C30A8B4201D3CB02C01A5241CA
:10220000830A8B4201D38B02C01A5241430A8B428C
:1022100001D34B02C01A5241030A8B4201D30B0275
:10222000C01A5241CDD2C3098B4201D3CB01C01A8F
:10223000524183098B4201D38B01C01A5241430999
:102240008B4201D34B01C01A524103098B4201D387
:102250000B01C01A5241C3088B4201D3CB00C01AF4
:10226000524183088B4201D38B00C01A524143086C
:102270008B4201D34B00C01A5241411A00D2014691
:10228000524110467047FFE701B5002000F0F0F81A
:1022900002BDC0460029F7D076E7704703460B43DE
:1022A0007FD4002243088B4274D303098B425FD34F
:1022B000030A8B4244D3030B8B4228D3030C8B427B
:1022C0000DD3FF22090212BA030C8B4202D3121261
:1022D000090265D0030B8B4219D300E0090AC30B36
:1022E0008B4201D3CB03C01A5241830B8B4201D3E3
:1022F0008B03C01A5241430B8B4201D34B03C01ACC
:102300005241030B8B4201D30B03C01A5241C30A43
:102310008B4201D3CB02C01A5241830A8B4201D3B4
:102320008B02C01A5241430A8B4201D34B02C01A9E
:102330005241030A8B4201D30B02C01A5241CDD243
:10234000C3098B4201D3CB01C01A524183098B428E
:1023500001D38B01C01A524143098B4201D34B0177
:10236000C01A524103098B4201D30B01C01A5241DA
:10237000C3088B4201D3CB00C01A524183088B4261
:1023800001D38B00C01A524143088B4201D34B004A
:10239000C01A5241411A00D20146524110467047BC
:1023A0005DE0CA0F00D04942031000D340425340C1
:1023B00000229C4603098B422DD3030A8B4212D381
:1023C000FC22890112BA030A8B420CD389019211B3
:1023D0008B4208D3890192118B4204D389013AD0F0
:1023E000921100E08909C3098B4201D3CB01C01AC5
:1023F000524183098B4201D38B01C01A52414309D8
:102400008B4201D34B01C01A524103098B4201D3C5
:102410000B01C01A5241C3088B4201D3CB00C01A32
:10242000524183088B4201D38B00C01A5241D9D24A
:1024300043088B4201D34B00C01A5241411A00D2CB
:102440000146634652415B10104601D34042002BC7
:1024500000D54942704763465B1000D3404201B546
:10246000002000F005F802BD0029F8D016E77047FB
:102470007047C0468446101C62468C46191C634651
:1024800000E0C0461FB501F0C1FE002801D40021C4
:10249000C8421FBD10B501F00BFE4042013010BD17
:1024A00010B501F0B3FE002801DB002010BD0120B3
:1024B00010BDC04610B501F0A9FE002801DD0020C6
:1024C00010BD012010BDC04610B501F02DFE002842
:1024D00001DC002010BD012010BDC04610B501F088
:1024E00023FE002801DA002010BD012010BDC046E7
:1024F0008446081C6146FFE71FB500F0A3FB0028D7
:1025000001D40021C8421FBD10B500F027FB404296
:10251000013010BD10B500F095FB002801DB002054
:1025200010BD012010BDC04610B500F08BFB002887
:1025300001DD002010BD012010BDC04610B500F027
:1025400035FB002801DC002010BD012010BDC04675
:1025500010B500F02BFB002801DA002010BD01208F
:1025600010BDC0469E2110B5C905041CFFF7F0FF41
:10257000002803D1201C00F0A7FE10BD9E21201CC6
:10258000C90500F0C3FC00F09FFE80231B069C469B
:102590006044F2E7437802781B021A438378C078DC
:1025A0001B041343000618437047C046030A4B70D0
:1025B00003021B0E8B70030E0870CB707047C04671
:1025C00003005A78007812020243987819790004BF
:1025D0000243D878000610435A7912020A439979C7
:1025E00009040A43D979090611437047030A537055
:1025F000030C9370030ED3700B0A53710B021B0E66
:1026000093710B0E10701171D3717047F0B546467F
:10261000D6464F464D024202C0B5520A6E0A4700E6
:10262000B0463F0E4E00C40FD00094463B00824699
:10263000360EC90FAD098C426DD0B81B81460028FB
:102640004DDD002E00D188E0FF2F5AD08023DB041F
:102650001D434B4601221B2B0ADC2B004A464946F0
:10266000D3402022521A95402A00551EAA411A43EF
:1026700053469A1A530100D4B9E0920196093000EA
:1026800002F086FD05388640874200DDD4E0330045
:10269000C71B20200137FB40C71BBE403200561E1F
:1026A000B24100271A43530704D00F231340042BD1
:1026B00000D00432530100D49CE07B1CFE2F00D1DB
:1026C0009AE09201520A9446DBB2D8056346E407C9
:1026D00018432043E0BCBA46B146A846F0BD0028E6
:1026E00049D0F31B002F00D0B6E05246002A60D03C
:1026F000013B002B00D1FCE0FF2E00D0B4E00C0029
:102700004246002A78D08020C00310434202530A78
:102710009C46FF23D9E7B91B002971DD002E3FD06D
:10272000FF2FEED08023DB041D4301221B2907DC91
:102730002A002023CA40591A8D406B1E9D412A430E
:102740005244530153D50137FF2F55D001237B4904
:10275000134052080A401A43A5E7002D2CD001234C
:102760005B429C46E1444B46002B00D1ADE0FF2F7D
:1027700000D06EE7C5E7FE207E1C304260D1002FFE
:1027800000D093E05246002A00D1B6E0002D9CD044
:10279000521B500100D4C3E053460C00EA1A82E7F2
:1027A000002D09D00139002900D18BE0FF2FBCD1C9
:1027B000A7E70C0042463700FF2FA2D05202530A6F
:1027C0009C46FBB281E7FE210137394265D1002BDF
:1027D0007ED1002800D1AAE0002D00D175E72A00A3
:1027E00052440027530102D5554B01371A40530775
:1027F00000D05AE7D208DFE70022FF23944664E7BF
:102800000029E0D0F31B002F3ED0FF2E00D177E748
:1028100080220100D20411438A4601221B2B08DCCE
:10282000524620215046DA40CB1A9840431E984128
:1028300002433700521984E7414A3F1A324032E7D7
:1028400053465E1B73012DD4002E00D017E70022E3
:1028500000240023944638E7FF2E00D14FE7802262
:102860005046D2041043824601221B2B08DC5246FC
:1028700020245046DA40E31A9840431E9841024310
:102880000C003700AA1AF5E6002893D0013B002B74
:102890004FD0FF2EC1D1424633E7FF2FACD0554475
:1028A0006A08A4E753460C00EE1AE8E65346002BEC
:1028B00028D1002D00D022E78023DB039C46002492
:1028C000FF2302E72A0052443BE753465A1BD1E656
:1028D000002800D114E7002D00D112E78023DB038C
:1028E0001A4200D10DE74146194200D009E742469D
:1028F00007E70C003700AA1ABCE6002D13D00C0025
:10290000C446E2E6002D00D1FBE68023DB031A4239
:1029100000D1F6E64046184200D0F2E60C00EFE6A1
:10292000002A00D063E7002200249446CDE6C44686
:10293000CBE62A003700524403E7C046FFFFFF7D85
:10294000FFFFFFFBF0B54F464646D6464502C0B5F1
:1029500047000C1C6D0A3F0EC60F002F66D0FF2FDC
:102960006CD00023EA00802599469A46ED04154371
:102970007F3F60026100430A9846090EE40F002978
:1029800048D0FF2910D08022D800D20402439046BC
:1029900000207F394A4633007F1A02436C49920077
:1029A0008A586340DBB29746002B6DD10220FF3F6F
:1029B00033E0002398462600454682465346022BC4
:1029C00000D17FE0032B00D194E0012B17D0380019
:1029D0007F3000285FDD6B0704D00F232B40042BD2
:1029E00000D004352B0103D538005A4B80301D40F0
:1029F000FE2867DCAD016D0AC0B202E01E000020B7
:102A00000025C0052843F6073043E0BCBA46B1466E
:102A1000A846F0BD002B2BD101204A4633004E4979
:102A2000024392008A586340DBB29746002D13D1CF
:102A300004239946033B00279A469AE7002D05D1C7
:102A400008239946063BFF279A4692E70C239946AE
:102A5000093BFF279A468CE7280002F099FB76276E
:102A6000431F9D4000237F4299469A463F1A80E7C4
:102A7000180002F08DFB4246431F76219A404942DE
:102A8000091A9046002085E7FF21032082E71E00F7
:102A9000FF200025B5E701231B1A1B2BAFDC9E3757
:102AA0002900BD40D9406A1E95410D436B0704D0F3
:102AB0000F232B40042B00D004356B0144D501209B
:102AC00000259EE7FF2000259BE780250026FF20AC
:102AD000ED0396E7002398468020C003054209D005
:102AE0004346034206D1454605436D022600FF20BA
:102AF0006D0A86E78020C00305436D02FF206D0A42
:102B00007FE741466A014801824219D21B21002514
:102B1000013F012614006D005200002C01DB9042A1
:102B200001D8121A354301390029F3D1501E8241D0
:102B300038007F301E001543002800DD4BE7AAE770
:102B40001A210125121AE4E7AD0100206D0A58E7A9
:102B500094430610FFFFFFF7D443061070B5420000
:102B60004E024C0045026D0A120EC30F760A240E67
:102B7000C90FFF2A0FD0FF2C11D00120A24200D094
:102B800070BDB542FCD18B420DD0002AF8D128008F
:102B9000451EA841F4E70120002DF1D1EBE701200B
:102BA000002EEDD1E9E70020EAE7C046F0B542008B
:102BB00046024D024C00C30F760A120E6D0A240E17
:102BC000C80FFF2A1FD0FF2C10D0002A1FD171423E
:102BD0007141002C01D1002D1ED000290ED183425D
:102BE0001ED00221581E08400138F0BD002D26D10C
:102BF000002AF4D1714271410029F0D00028F4D1AB
:102C000001204042F1E7002E19D1FF2CEED0002C1C
:102C1000E5D1002DE3D1E4E70020002EE5D0E0E788
:102C2000A24205DCEADBAE4202D8E7D30020DCE7B3
:102C3000414241414842022108400138D5E7022083
:102C40004042D2E7F0B5420046024D024C00C30FAD
:102C5000760A120E6D0A240EC80FFF2A0DD0FF2C23
:102C60000FD0002A23D171427141002C0FD1002DC9
:102C70000DD10020002E14D00DE0002E10D1FF2C1D
:102C800015D1002D0CD1002A03D1714271410029C8
:102C900008D1834210D00221581E0840013800E0BC
:102CA0000220F0BD0028FCD101204042F9E7002CB1
:102CB000EFD1002DEDD1EEE7A24205DCF2DBAE4212
:102CC00002D8EFD30020ECE74142414148420221C3
:102CD00008400138E5E7C046F8B557464E46454638
:102CE000DE464402E0B545000F1C640A2D0EC60FF7
:102CF000002D47D0FF2D4DD0002380209A469B46C3
:102D0000E400C00404437F3D7802430A99467A00F8
:102D1000FB0F9846120E4B4644D0FF2A11D0D80024
:102D20008023DB040343994600207F3AAD184746D1
:102D300053467740691C0F2B3FD8724A9B00D358EB
:102D40009F46FF35002B00D079E0524602231A43FC
:102D500092460220EBE747464C4683465B46022BF1
:102D600028D0032B00D1C6E0012B4FD10020002436
:102D7000C005FF0720433843F0BCBB46B246A94616
:102D8000A046F8BD002C71D104239A46033B0025D0
:102D90009B46B9E7002C63D108239A46063BFF25E2
:102DA0009B46B1E7002B50D1524601331A4392465D
:102DB0000120BCE7FF200024DAE74846260C240463
:102DC000220C0404240C4B4620001B0C504374437B
:102DD0005A435E431219030C9B189C4203D980226C
:102DE00052029446664400041A04000C121894011E
:102DF000601E84411B0C920E9B1914439B011C43C3
:102E00001B0172D50120630804401C4308007F3079
:102E100000283CDD630704D00F232340042B00D09F
:102E20000434230103D580310800374B1C40FE28B1
:102E3000C0DCA401640AC0B29AE737008EE75246AC
:102E400003231A439246032071E7484602F0A0F993
:102E50004A46431F9A402D1A91460020763D66E768
:102E60000C239A46093BFF259B464DE7200002F0C4
:102E70008FF97625431F9C4000236D429A469B465E
:102E80002D1A41E780240027FF20E40370E7012387
:102E90001B1A1B2B00DD69E79E3120008C40D840B7
:102EA000631E9C410443630704D00F232340042B7B
:102EB00000D0043463011AD50120002458E7802093
:102EC000C003044209D04B46034206D14C4604439A
:102ED00064024746FF20640A4AE78020C003044397
:102EE00064023700FF20640A42E729008EE7A4014C
:102EF0000020640A3CE78020C00304436402FF20F2
:102F0000640A35E714440610FFFFFFF7F0B54646A4
:102F1000D6464F4643025B0ADA0094464A02C0B5E1
:102F20004400560A051CB046240E4E0092091F00AC
:102F300020009246ED0F360EC90FFF2E00D17FE024
:102F4000012251408D4251D0A21B9146002A00DC43
:102F50007EE0002E00D199E0FF2C00D18CE0802390
:102F60005246DB041A4392464A4601231B2A08DCD8
:102F700053462021D340891A52468A40511E8A4125
:102F800013436246D31A5A0100D4F3E09B019E0911
:102F9000300002F0FDF805388640844200DDF7E09D
:102FA0003200041B20200134E240041BA640330001
:102FB0005E1EB341002413435A0704D00F221A4067
:102FC000042A00D004335A0100D4D6E0621CFE2C3F
:102FD00000D1DAE09B015F0AD0B2C0053843ED07AB
:102FE0002843E0BCBA46B146A846F0BDA21B9146B4
:102FF000002A63DD002E00D199E0FF2C3CD0802315
:103000005246DB041A4392464A4601231B2A08DC37
:1030100053462021D340891A52468A40511E8A4184
:10302000134363445A0100D4A4E00134FF2C00D1BF
:10303000ABE0012297491A405B080B401343BBE702
:10304000002A32D08D4235D0FF2252429146A1440F
:103050004A46002A51D0301B002C00D09CE0634629
:10306000002B00D1DFE00138002800D1F7E0FF2E6F
:1030700000D099E00D004346002B00D185E0802769
:10308000FF031F437F02FF207F0AA6E75246002A64
:1030900074D0012252429046C1444A46002A00D1CF
:1030A000C8E0FF2C00D05FE7E6E701225140A942CB
:1030B00000D049E7FF2252429146A1444A46002AE5
:1030C00043D0311B002C00D18CE0FF2E00D192E0C8
:1030D00080236246DB041A43944601231B2909DC42
:1030E000202063466246CB40411A8A401100481EA8
:1030F00081410B433400534494E7FE22661C324264
:1031000064D1002C00D082E06346002B00D1ABE0FC
:103110005346002B00D160E7634652469B1A5A0182
:1031200000D4AAE0634652460D00D31A44E7524643
:10313000002A23D0012252429046C1444A46002A26
:1031400075D0FF2C00D05FE796E7FE2601342642BB
:1031500053D1002872D16346002B00D193E053462F
:10316000002B00D139E7634400245A0102D54A4AB2
:10317000013413405A0700D020E7DB08FF2C00D1B0
:103180007AE75B025F0AE0B227E7FF20002724E727
:10319000414B241A33400FE7FF2E00D16AE780230A
:1031A0006246DB041A43944601231B2809DC2024D1
:1031B00063466246C340201A82401000441EA0416C
:1031C000034352460D003400D31ADCE663465246F0
:1031D0009E1A730117D4002E00D0D9E600250020D6
:1031E0000027FAE66346002B44D0013900294CD071
:1031F000FF2E00D071E743463EE7FF2CC5D0524674
:1032000062445308B6E763460D00D61AC0E662462C
:10321000002A16D15346002B00D02BE7802700252B
:10322000FF20FF03D9E60D0043463400A6E75346CE
:103230006344F7E6634652469B1AA4E66246002AB8
:10324000D9D05246002A00D116E78022D203134279
:1032500000D111E74046104200D00DE70AE7524680
:103260000D003400D31A8EE65346002B08D00D0013
:103270004746B2E64346340080E7002B00D079E7AA
:1032800000250027A9E64746A7E6534634006344D5
:10329000C8E6C046FFFFFF7DFFFFFFFB42024B0277
:1032A00040004900520A5B0A090E000EFF2806D0B2
:1032B0000020FF2902D11800431E98417047FE38B4
:1032C000002AFBD1F4E7C04641024200C30F490A7D
:1032D0000020120E7E2A03D99D2A02D9094A981885
:1032E0007047802000040143952A07DC9620821A4B
:1032F000D1404842002BF3D10800F1E7963A9140C3
:10330000F7E7C046FFFFFF7F70B5002813D0C31753
:10331000C5185D40C40F280001F03AFF9E2301004C
:103320001B1A962B0FDC082801DD08398D406D0231
:103330006D0AD8B202E0002400200025C005284311
:10334000E407204370BD992B0BDD05222E00121AD5
:10335000D64002001B3295402800451EA84135008A
:103360000543052901DD4A1F95402A00084E3240D9
:10337000680709D00F202840042805D004325001E6
:1033800002D59F2332405B1A9201550AD8B2D5E785
:10339000FFFFFFFB70B5051E0ED001F0F9FE9E2366
:1033A00004001B1A962B0CDC082801DD083CA54004
:1033B0006D026D0AD8B201E000200025C005284347
:1033C00070BD992B09DD020029001B3291404A1E75
:1033D00091410522121AD5400D43052C01DD621FD3
:1033E00095402900084E31406A0709D00F20284037
:1033F000042805D004314A0102D59F2331401B1B0C
:1034000089014D0AD8B2D9E7FFFFFFFBF0B54F465F
:10341000D64646460D0001001800C0B517002B0324
:103420005A0A4B0F1343CA00914602036E00410033
:10343000520AEC0F7D0F1543760D490DC00F8246E1
:10344000AC46FF00721A844200D198E0002A00DCEA
:1034500081E0002900D1B6E0C9498E4200D172E175
:1034600080212800090408438446382A00DD5EE1F3
:103470001F2A00DDEEE1202039006546801A8740D2
:10348000D14085400D4339004F1EB9416746D740B2
:103490002943DB1B4A46551AA945894149425B1A13
:1034A000984643461B0200D4CCE043465B025B0ACD
:1034B00098464346002B00D12CE1404601F068FEBF
:1034C00001000839202228004346521A8B40D04080
:1034D0008D4003438E4200DD17E18E1B721C1F2AB4
:1034E00000DDA7E1202118002E00891A8D408840B8
:1034F000D640D340691E8D4130439846002605438F
:103500006B0709D00F232B40042B05D02B1DAB429A
:10351000AD416D42A8441D0043461B0200D494E017
:10352000974B721C9A4200D19DE04146954BED08A5
:1035300019400B00520549075B0229431B0B520D32
:1035400012051343E407234308001900E0BCBA4600
:10355000B146A846F0BD002A43D08A1B002E00D0F9
:103560002AE14C461C4300D1D1E1541E012A00D16E
:103570001FE2834DAA4200D172E2220023E1002A19
:1035800000DC98E0002942D07D498E4200D1DAE08B
:1035900080212800090408438446382A00DD29E1F7
:1035A0001F2A00DC87E1110065462039CD40202A22
:1035B00004D040206146821A91400F4339004F1ECB
:1035C000B9410D431BE12900394300D1B5E0511E3B
:1035D000012A00D1ABE16A48824200D1B2E10A007F
:1035E00043E76949751C0D4200D0CFE0002E00D0A2
:1035F00093E14946194300D1D1E16146394300D0F6
:10360000E3E149465807C9080143DB0826E02900E1
:10361000394300D191E0511E012A05D05848824219
:1036200000D18FE10A00B8E73D004D444D45894186
:103630006344984649428844434602261B0200D50B
:10364000EBE0013E6B0700D05CE74346E9085A0710
:1036500011433200DB084A48824221D01B03520545
:103660001B0B520D6CE70023002169E72A003A4347
:1036700069D04A465807D108DA0880231B0308435B
:103680001A4207D02900ED081D4203D12A00FF0885
:1036900048073843430FC1005B07C90819431300AB
:1036A0000A001A4300D113E28022120313431B03C2
:1036B000334A1B0B44E7002A4BD08A1B002E00D153
:1036C000E7E02F48814200D195E1802000040343C8
:1036D000382A00DD43E11F2A00DDDBE120201D0048
:1036E0004E46801A8540D64035434E4686403000CF
:1036F000D340461EB0419C440543ED19BD429B4159
:103700005B42634498460E007FE01E4A761A1340DF
:103710009846F5E6280001F03BFD010018311F290D
:1037200000DCCFE62B00083883400025D2E6624655
:103730003A4311004F1EB941ACE649465807C90843
:103740000143DB0887E749465A07C9081143DB08EC
:10375000A6E70D49701C084200D0BBE0002E00D047
:1037600014E14946194300D175E12900394300D0DD
:103770007EE149465807C9080143DB086EE7C046A9
:10378000FF070000FFFF7FFFFE0700004946CD1B3B
:103790006146581AA9458941494288460100404678
:1037A000091A8846090200D5A6E04146294300D0FF
:1037B0007FE60023002451E7C74CA14200D1C7E0B7
:1037C000802424042343382A54DC1F2A00DDCCE063
:1037D00020244846A41A1D004E46A040D640A540CD
:1037E0000400D34062463543661EB441D31A9C465A
:1037F000254344E062463A4315006F1EBD414D44E7
:103800004D45894149428846984443461B0200D4AD
:1038100018E7B14B01369E4249D04246AF4B0121D9
:103820001A4013006A080D401543D9075B089846F3
:103830000D4365E618001F3EF040202A03D04021CA
:103840008A1A93401D43691E8D4100230026984625
:103850000543F7E6110065462039CD40202A04D003
:1038600040206146821A91400F4339004F1EB941F2
:1038700029430FE64A4613431D006B1E9D417D1BE5
:10388000AF429B4162465B42D31A984654460E00B3
:1038900007E64846184300D1B3E0501E012A00D184
:1038A0000DE18D4DAA4200D1A5E0020010E73200E3
:1038B0000023002144E620213800891A65468F4004
:1038C0008D40D040791E8F4105433D436746D74028
:1038D000DB1994E7804A904200D1ECE0390049447A
:1038E00049459241634452429B18DD0749085B08F1
:1038F000984606000D43A5E64A46BD1AAF428941E7
:1039000062464942D31A5B1A98465446D1E56C0781
:10391000F9082143EB0804009DE64A461A4375D195
:103920006146394314D1802300241B03BCE64A4678
:10393000D51BA9458941624649429B1A5B1A9846A4
:103940000126AEE54A46D1085A071143DB08A7E62F
:103950006346F9085A0754461143DB08A0E64A4675
:1039600013431D006B1E9D41C7E614001E00203C42
:10397000E640202A05D04024A21A93404A461A4322
:1039800091464D466B1E9D41354378E74A461A43A2
:1039900000D06BE66B07F9081943EB0880E6614637
:1039A000394354D06346F9085C072143DB0804001F
:1039B00054E64A46BD1AAF42894162464942D31A8B
:1039C0005B1A9846040001266BE54A46D51BA945BB
:1039D0008941624649429A1A521A9046120232D5D9
:1039E0004A46BD1AAF42894162464942D31A5B1A20
:1039F0009846040084E56346F9085A071143DB083A
:103A00004EE6F90868070143EB0824E662463A43AC
:103A100000D198E64A46D1085A071143DA088023B4
:103A20001B031A4208D06046C5081D4204D1544603
:103A30002A00F908430719434B0FC9005B07C9085F
:103A4000194313002CE64146294300D0FAE5002330
:103A50000A00002402E66B07F9081943EB08FDE5AC
:103A60006346F9085B07194363460400DB0817E661
:103A70003D004D4463444D45894198464942884440
:103A800043461B0200D4DDE54246144B01261A4092
:103A90009046D7E510001E002038C640202A05D0E9
:103AA0004020821A93404A461A4391464D466B1E67
:103AB0009D41354321E602000023002140E54A46AE
:103AC000D519BD4289416344984649428844B3E5CB
:103AD0000021014A0B0033E5FF070000FFFF7FFFD5
:103AE000F0B557464E464546DE46E0B581460500F0
:103AF0000C03480092461F0085B0240B400DCE0FEA
:103B0000002859D0874B984200D198E06B0FE40011
:103B10001C4380231B0423439846834BED009B46A4
:103B200000239946834400933C037B005046240BBA
:103B30005B0DFF0F002B67D07A4A934218D07A4969
:103B4000420F8C46E4005946144380226344120419
:103B5000CB1A14439B46C200002033007B409A4698
:103B60004B460F2B00D9EFE070499B00CB589F4686
:103B70006F4B52469C462243E344002A00D095E016
:103B8000494602231943894600240220E5E7002321
:103B90000024002552461B052343D2071343280067
:103BA000190005B0F0BCBB46B246A946A046F0BD20
:103BB000002400255B4BEDE74B462343984600D19C
:103BC00089E0002C00D1E0E1200001F0E1FA0100E1
:103BD00002000B391D235B1A49461000D9400838F2
:103BE00084400B004D4623439846854051483C0392
:103BF000831A9B460023994600937B005046240B72
:103C00005B0DFF0F002B97D15246224355D0002C5D
:103C100000D1CAE1200001F0BBFA02000B3A1D23DB
:103C200001009B1A52460839DA408C401443524630
:103C30008A40414B58449B46834400208DE74B46C5
:103C40002343984640D108239946063B00258346E6
:103C5000009369E7B246009B022BA9D0032B00D149
:103C600011E2012B93D0354A5A44002A00DC3CE192
:103C70006B0700D0A7E1ED084346DB0106D54246BD
:103C80002F4B1A4090468022D2005A442D4B9A4224
:103C90008EDC4346520558075C020543240B530D46
:103CA00078E7BA46A04615000090D4E74A460323B9
:103CB0001A439146032052464FE7494601231943D0
:103CC00089460024012048E70C239946093BA04679
:103CD0008346009328E70423994600239B4601333B
:103CE0000025009320E7002380249A4600250D4BF1
:103CF00024034FE7802341461B03194208D01C428E
:103D000006D11C432403BA461500064B240B41E799
:103D10008024434624031C432403B246014B240B56
:103D200038E7C046FF07000001FCFFFF54440610BF
:103D300001F8FFFF0DFCFFFFF3030000FF0300008D
:103D4000FFFFFFFEFE070000444500D216E100D150
:103D500011E101235B429C462E0040460025E344CE
:103D60002302140E1C431B0C994623041F0C120241
:103D7000494600920197FEF78DFA02007A430B0440
:103D8000310C804619438A420BD901235B429C4681
:103D90000919E0448C4204D88A4202D9831E98460D
:103DA0000919881A4946FEF775FA09048C46310448
:103DB0006646019A090C4243030031438A4204D902
:103DC0000919013B8C4200D811E1891A4246009E34
:103DD00012041A43330C1F00100C90460293130474
:103DE0003204160C32001B0C5A4303967B434643A5
:103DF0007843170CBC469B1963449E4203D9802626
:103E00007602B44660441E0C301816041B04360CAF
:103E10009E19814200D29CE000D197E0AE1B091AA6
:103E2000B54280414042081A844200D111E149461E
:103E3000FEF730FA019A0B044243310C0500194396
:103E40008A4207D90919013D8C4203D88A4201D917
:103E5000851E0919881A4946FEF71CFA09048C4682
:103E600031046646019A090C4243030031438A42F9
:103E700007D90919013B8C4203D88A4201D9831E14
:103E80000919039E891A32002D041D43029F2B0439
:103E90001B0C5A437B439C46280C4643130CB444EA
:103EA000634478439E4203D980267602B446604438
:103EB0001E0C12041B04120C30189B18814206D3EE
:103EC00002D001231D43CEE6002B00D1CBE66118C2
:103ED0006E1EA14200D2A4E0814200D2C9E000D10E
:103EE000D9E03500EDE701256D420121891A382915
:103EF00000DD4CE61F2900DC7FE01F235B429A1A9D
:103F00004346D340202904D04446654A5A4494404D
:103F100025436A1E954107222B43150000241D40AE
:103F20001A4200D1A1E00F2200241A40042A00D135
:103F300098E01A1D9A429B415B42E418130022024A
:103F400000D48FE001230024002523E6B54200D3EE
:103F500064E743465A1E009B9C4665441F009D42F1
:103F60009B415B421B19C9188C423AD2884263D8E4
:103F700060D0904652E7AA4200D9EAE64346DE07FF
:103F800058086B081E43ED07EAE6484601F000F9C1
:103F900001000200153120321C2900DC1AE64B46D4
:103FA000083883400025984620E601F0F1F8030028
:103FB0001A00153220301C2A00DC30E65446083B3B
:103FC00000229C4035E60F232B40042B00D152E603
:103FD00005235B42AB429B4104355B42ED089844AC
:103FE0004AE68C42C5D1AF42C0D9904616E78A4214
:103FF00000D8EAE6831E0919E7E62A4A28005A444F
:10400000434695409340C8406A1E95414446034349
:104010002B43CC405A0792D00F221A40042A88D151
:104020008DE73500814200D04BE7009A934200D0E3
:1040300047E718E6AE429CD902235B429C46009BB0
:10404000E0449C4665449D429B415B421B19C91854
:10405000E4E6154A5A44002A00DC44E7012300251F
:10406000984409E665076402240BDB081D4300231E
:1040700090E5009E023D7200B242BF417F423C1972
:1040800009190092CEE78024434624031C432403ED
:10409000064B240B7EE5009A9A42EAD33500C4E72A
:1040A0003E0400001E040000FF030000FF070000A4
:1040B000F0B54F464646D646944691461A03120B33
:1040C000184DC0B54C000F0392465A0006008046BA
:1040D0003F0B0120640DC90F520DDB0FAC420AD01B
:1040E000AA4203D0944201D157450DD0E0BCBA4654
:1040F000B146A846F0BD3D003543F7D1A242F5D107
:10410000524665462A43F1D10120C845EED1994275
:1041100006D0002CEAD13E433000461EB041E5E710
:104120000020E3E7FF070000F0B54E46454657463E
:10413000DE4604001800E0B516001B031B0B324DD1
:104140000F034A0099464300A446B0463F0B520D68
:10415000C90F5B0DC00FAA4229D0AB4218D0002A6C
:104160002AD13C43A34665426541002B02D14C460F
:10417000264327D0002D15D1814228D002200139B5
:1041800008400138F0BCBB46B246A946A046F0BD87
:104190004D462E432FD1002AEED13C436542654166
:1041A000002DE9D00028EDD101204042EAE73D0092
:1041B000254320D19342EBD0002BDDD14C46264342
:1041C000DAD1DBE75B460020002BDBD0D6E79A4252
:1041D0000ADCE7DB4F45D1D810D000204F45D1D2C3
:1041E0000029E1D00800CDE7434258410223404274
:1041F00018400138C6E702204042C3E7C445BDD895
:104200000020C445BED2EBE7FF070000F0B54E46E4
:1042100045465746DE4604001800E0B516001B036D
:104220001B0B314D0F034A0099464300A446B0468C
:104230003F0B520DC90F5B0DC00FAA4211D0AB420C
:1042400014D0002A2FD13C43A34665426541002B80
:1042500014D14C46264311D15B460020002B17D0C9
:1042600010E03D00254312D193421CD14D462E4310
:104270000DD1002A04D13C4365426541002D0DD18A
:10428000814216D0022001390840013800E00220A6
:10429000F0BCBB46B246A946A046F0BD0028F7D107
:1042A00001204042F4E7002BEAD14C462643E7D1F7
:1042B000E8E79A4206DD4342584102234042184053
:1042C0000138E5E79A42E9DB4F45DBD806D000200C
:1042D0004F45DDD20029E3D00800D9E7C445D1D845
:1042E0000020C445D4D2F5E7FF070000F0B55746DB
:1042F0004E464546DE46E0B598460C034B000600A8
:10430000924687B0240B5B0DCF0F002B6CD0DD4A9B
:10431000934200D186E0420FE4001443802212044D
:104320001443D94AC5009446634400930023994638
:104330009B46434642461E03D20F5B0050469046C2
:10434000360B5B0D00D178E0CE4A93421DD0CE49AA
:10435000420F8C4600996344F6008C461643802237
:104360009C44120463461643C20000200093009947
:10437000434601318C4649467B4001930F2900D9C1
:104380007EE0C24B890059588F465246009B32430B
:1043900000D056E1BB4900268C4663444946009351
:1043A0000223194389460220E1E743460193340082
:1043B000150083465B46022B5ED0032B00D1F3E150
:1043C000012B00D018E1002200240025019B1205DA
:1043D0002243DB071A432800110007B0F0BCBB469C
:1043E000B246A946A046F0BD2500054300D141E1F3
:1043F000002C00D1ADE1200000F0CAFE0100020057
:104400000B391D2310005B1A310035000838844039
:10441000D94085400C439E48831A00930023994657
:104420009B4686E70500254300D01CE10822009347
:104430000223002491469B467BE75246324300D13B
:104440000AE1002E00D176E1300000F0A1FE02006A
:104450000B3A1D2301009B1A52460839DA408E4060
:10446000164352468A40009B8949181A03008C461D
:104470006344002000937AE700240025814AA5E7E1
:104480002F0C2D042D0C2B00110C1204120C534375
:104490009846130028007B43994648434844834686
:1044A00040460B00000C824658467B435044029322
:1044B000814506D99A4680235B029946CA445346F1
:1044C0000293030C9B4643461B0400041B0C9846B6
:1044D000030043440493330C99462B003604360CF6
:1044E0007343984633007B439A464B465D435F4394
:1044F00043465544180C4019824503D980235B027A
:104500009A465744050CEB19059343461D042D0CA0
:1045100000044019250C2404240C270057436A4347
:1045200090462A003B0C9A464A4361434144514419
:104530008344884503D980235B02984642443F0464
:104540000B0C3F0C0904C919270098464B467743CA
:104550005C436E435D433B0C9946A4194C44424472
:104560000395A64204D980235B02984645440395EF
:10457000029B3F045B441E00834280412304984613
:10458000059B3F0C4744984676188E428941474424
:1045900040423D18A846934649428A46C3449F423A
:1045A000BF4180458041039BDA44984653464042D0
:1045B0007F420743240C934592418A4589413F1924
:1045C000DC0D049B75021D43681E85415346524213
:1045D00049420A43BF184744F60D7F0235435A0249
:1045E0003C431543FB0100D4C1E001216A080D40A2
:1045F0001543E2071543640826496144002956DD46
:104600006B0709D00F222A40042A05D02A1DAA428E
:10461000AD416D4264191500E30104D580211E4AA5
:10462000C900144061441D4A914200DD24E762073D
:10463000ED08640249051543240B4A0DC6E60197AF
:10464000B8E6104A0320944663444A460093032385
:104650001A43914652468AE6494601231943894640
:104660000026012083E60C220093032305009146D7
:104670009B465EE604239946002300930133002401
:104680009B4656E6FF07000001FCFFFF944406101E
:104690000DFCFFFFFF030000FFFFFFFEFE07000011
:1046A000002380240025444A019324038EE6012040
:1046B000401A382800DD86E61F285BDD1F22230014
:1046C0005242511ACB401900202803D03B4A624481
:1046D000944025436A1E95412A000A4307210D0094
:1046E0000024154011425BD00F2100241140042901
:1046F00053D0111D914292415242A4180A00230244
:104700004BD501220024002560E680231B031C42B8
:1047100009D01E4207D133431C0343461500240B26
:10472000254A019352E68022120314432403224AAD
:10473000240B01974AE600F02BFD03001A00153206
:1047400020301C2A00DC84E65646083B00229E40AE
:1047500089E600F01DFD01000200153120321C2900
:1047600000DC4EE6340008380025844053E6009B08
:104770009C4641E71249220061442E008D408A4048
:10478000C640691E8D4132432A43C4405307B6D008
:104790000F2111400429ACD1B1E765076402240B55
:1047A000D2081543002211E6802212031443240389
:1047B000014A240B0AE6C046FF0700003E04000041
:1047C0001E040000F8B557464E464546DE46040036
:1047D000E0B51F0010000B03620F4E00CD0F5B0A07
:1047E00039031343490AE200440F2143C24C914666
:1047F0009246C0007A008046760D520DFF0FA2420D
:1048000000D1B4E001246740BB46BD4200D188E03E
:10481000B41AA446002C00DCB2E0002A00D1C5E0A6
:10482000B54A964200D18BE28022120411436246BF
:10483000382A00DDA1E11F2A00DD16E220270C0046
:10484000BF1ABC400200A0466446B840E24044465D
:1048500014430200501E82416046C14022435B1A4D
:1048600049468C1AA145924152429B1A98464346AA
:104870001B0200D417E143465B025B0A984643469D
:10488000002B00D16CE1404600F082FC0200083AA7
:10489000202120004346891A9340C8409440034396
:1048A000964200DD57E1961B711C1F2900DDCBE10C
:1048B000202218002600521A94409040CE40CB404F
:1048C000621E94413043984600260443630709D092
:1048D0000F232340042B05D0231DA342A44164428F
:1048E000A0441C0043461B0200D4DFE0824B01368B
:1048F0009E4200D1FBE04246804BE4081A40130080
:10490000710552075B0222431B0B490D0905ED0798
:10491000194329431000F0BCBB46B246A946A04645
:10492000F8BDB41AA446002C58DD002A00D19EE040
:10493000714A964200D13BE1802212041143624643
:10494000382A00DDC1E01F2A00DCBBE10C00203A60
:10495000D44022006446202C04D040273F1BB9409D
:10496000084380464446611E8C411443B1E00C006C
:1049700004432AD0BB46BD422DD0614CA446B4446A
:104980006446002C5CD0941BA446002E00D015E198
:104990004D461D4300D1C3E1651E012C00D10CE240
:1049A000554EB44200D1F8E1AC460EE10A00024394
:1049B00000D136E12200013A012C00D1C6E14E4C73
:1049C000A44500D1F4E0944631E701246740BB469A
:1049D000BD4200D01CE74A4CA446B4446446002CB7
:1049E00000D1CFE0941BA446002E00D15CE1424EE2
:1049F000B24200D1ECE18026360433436446382CC1
:104A000000DDB3E11F2C00DD38E22026361B1C0040
:104A1000B4404F46A0466446E74044463C434F46B8
:104A2000B7403E00771EBE4134436646F340C91886
:104A3000241884429B415B429846160088444EE00D
:104A4000304A741C144200D0D6E04A461A43002E65
:104A500000D05BE1002A00D1A5E10A00024300D0AA
:104A6000BBE14A465907D2080A43DB0827E00A009F
:104A7000024300D174E12200013A012C05D01E4C02
:104A8000A44500D194E0944659E7484448459241F2
:104A90005B189846040052429044434602261B028B
:104AA00000D5C4E0013E630700D011E74346B44699
:104AB0005907E2080A43DB080F498C4540D061469C
:104AC0001B0349051B0B490D20E701430C00611E28
:104AD0008C414C444C459241524290469844434646
:104AE0001B02E0D5044B01369E4200D09FE031000E
:104AF000002300220AE7C046FF070000FFFF7FFFF8
:104B000001F8FFFFFE070000002A00D160E10A0063
:104B100002434DD04A465C07D20822438024DB087A
:104B20002403234207D0CE08264204D15D46330039
:104B3000C20849070A43510FD200D20849070A4365
:104B40001100194300D1C8E1802109030B431B0365
:104B5000D5491B0BDAE6D549B61A0B409846B5E69F
:104B6000200000F015FB020018321F2A00DC8FE63F
:104B7000230008388340002492E608430200501EB8
:104B800082416DE6CA4C721C224200D0ADE04A461A
:104B90001A43002EB8D1002A00D158E10A0002437E
:104BA00000D059E14A465907D2080A43DB0886E794
:104BB0004A465907D2080A43DB08C1E7BA4DAA4260
:104BC00000D11EE180252D042B436446382C5DDC8A
:104BD0001F2C00DDD0E0202567462D1B4E461C0013
:104BE000FE40AC4034434E46AE403500FB406E1EA6
:104BF000B541C91A2C434EE04A46141AA1459241C8
:104C0000524290465F1A3A004746D21B9046120223
:104C100000D58BE04246224300D030E60023002539
:104C20004DE74A465907D2080A43DB0844E74246A3
:104C30009E4B61081A401300012214400C43DA070E
:104C40005B089846144341E61A001F3EF2401600E6
:104C5000202903D04022511A8B401C43621E9441EC
:104C600000233443984600261DE70C00203AD44028
:104C700022006446202C04D040273F1BB940084343
:104C800080464446611E8C412243E9E54C4623435D
:104C90001C00631E9C41041BA0429B415B42CB1A3B
:104CA00098465D461600E2E54E461E4300D1AEE052
:104CB000661E012C00D1FDE07B4FBC4200D107E114
:104CC000B4469BE664462022121B0C009440070069
:104CD0009040A0466446421E90416246E7404446EA
:104CE000D1403C4304435B18F3E66F4CA24200D131
:104CF000D5E048445B184845894149425B18DC07C8
:104D000040085B08984616000443CCE6002A00D011
:104D100082E00A00024340D1802300251B0313E7F1
:104D20004B07C2081A435D46CB08C5E64A46841ABB
:104D3000A0429241CB1A52429B1A98465D469EE58C
:104D40004A465907D2080A43DB08F9E64A46141ACC
:104D5000A14592415B1A52429B1A9846012686E56C
:104D60004A465907D2080A43DB08A5E64C462343C6
:104D70001C00631E9C415BE665461E00203DEE4024
:104D8000202C05D040252D1BAB404C461C43A24691
:104D90005446631E9C4134437DE74B07C2081A43C7
:104DA0005D46CB08CCE60A00024300D136E74B074C
:104DB000C2081A435D46CB0881E64A46841AA042DF
:104DC0009241CB1A52429B1A98465D4601264EE507
:104DD0004B07C2081A43CB08B2E64A46141AA1454B
:104DE00092415F1A5242BA1A904612026BD54A4655
:104DF000841AA0429241CB1A52429B1A98465D46B1
:104E000064E54B07C2081A435D46CB0898E64B079A
:104E1000C2081A43CB084FE60A00024390D04A4624
:104E20005C07D20814438022DB081203134208D027
:104E3000CE08164205D1C0084907084304005D4664
:104E40003300610FE2004907D2080A4378E64B07B6
:104E5000C2081A43CB0832E648445B1848459241E1
:104E6000984652429044434604001B0200D41AE67E
:104E700042460E4B01261A40904614E666461F0035
:104E8000203EF740202C05D04026361BB3404C4630
:104E90001C43A2465446631E9C413C43C8E5110096
:104EA0000023002232E5C046FF070000FFFF7FFF1E
:104EB000FE0700004A461418844292415B18984647
:104EC00052429044E9E54246224300D1A6E6EAE593
:104ED0004B07C2081A43CB0832E6002201491300EF
:104EE00014E5C046FF07000070B505000C480C0330
:104EF000160049001A035B00240B490D120B5B0DD1
:104F0000814208D0064900208B4203D13243100071
:104F1000421E904170BD01202C43FBD1F2E7C046F8
:104F2000FF0700000A0030B5134C530009030500C9
:104F3000090B00205B0DD20FA34204DD0F48834212
:104F400002DD0F4BD01830BD8020400301430D48D7
:104F5000C01A1F2808DD0C48C31AD9400B0058425C
:104F6000002AF0D11800EEE7084CC540A44663447F
:104F700099400B002B43F2E7FE0300001D040000E4
:104F8000FFFFFF7F3304000013040000EDFBFFFF71
:104F900070B5002816D0C317C5185D40C40F28008F
:104FA00000F0F6F8114A121A0A2816DC03002E0047
:104FB00015339E400B23181AC54053052D032D0BA6
:104FC0005B0D03E000240023002500261B052B4376
:104FD000E40723433000190070BD0B3885405305AA
:104FE0002D0300262D0B5B0DF0E7C0461E040000CC
:104FF00070B543004602C40FFE201B0E591C750AF3
:1050000008420CD0E022920094466D07360B6344B0
:105010001B053343E40723432800190070BD002B10
:1050200014D1002D1BD0280000F0B2F80A281CDC97
:105030000B232A001B1ADA40030015339D400E4B48
:1050400012031B1A5B05160B5B0DE1E7002D09D05F
:10505000320B80263603094B6D071643D8E7002331
:105060000026D5E70026054BD2E703002A000B3BBC
:105070009A400025E3E7C04689030000FF070000CF
:1050800002004B00F0B508035B0D3D4ECC0F400A0B
:10509000510F5F1C0843D50037420AD039495E18CA
:1050A000FE2E16DDFF230021DB050B43E00718432E
:1050B000F0BD002B06D1284327D005218901490ADC
:1050C000DBB2F1E70543EDD08021C903FF230143A3
:1050D000EAE7002E1CDD920111004A1E9141C0003A
:1050E0006D0F014329434B0748D00F230B40042B7E
:1050F00000D004318023DB040B403FD0721CFE2E15
:10510000D0D08901490AD3B2CEE700230021CBE7F2
:105110003200173222DB80211E2209040843921B31
:105120001F2A1DDD022149428E1B0100F1400E00A5
:10513000202A04D0144A9446634498400543290029
:105140004D1EA941314300264B07CED180200B00D4
:10515000C004012203400142D3D1AFE70023ACE7F2
:105160000A498C4629006344D1409D400A00290029
:1051700098404D1EA94101431143E4E733009DE7E8
:10518000FE07000080FCFFFFA2FCFFFF82FCFFFF88
:105190001C2101231B04984201D3000C10391B0A67
:1051A000984201D3000A08391B09984201D300092B
:1051B000043902A2105C40187047C0460403020282
:1051C00001010101000000000000000010B508F01E
:1051D0000DF9441C431C04D108F008F9431CFBD111
:1051E000012408F003F9A042FBD110BD10B5034A19
:1051F00005F05EF9431E9841C0B210BD10270000B3
:1052000013B56B46DC1D04230220237006F03CFB23
:1052100001212000FFF7EAFF0400022006F030FB26
:10522000200016BD37B56B46DC1D052305000220A6
:10523000237006F029FB20000121FFF7D7FF041E91
:1052400004D0022006F01CFB20003EBD05F02CF926
:1052500002212800034A05F05AF9441EA041C4B2B5
:10526000EFE7C0461027000037B508F0BFF801256A
:10527000040008F0BBF80A4B001B984201D9022039
:105280000DE000236A4601A89380FFF7CBFF0028BA
:1052900005D16B461B79180028402B42E9D13EBD51
:1052A0000F270000C2B213B50124002A18D18123B0
:1052B00001AC23704303000A5B0FA07002206370EF
:1052C000E27006F0E1FA20000421FFF78FFF0400EE
:1052D000022006F0D5FA002C02D1FFF7C5FF04002A
:1052E000200016BDF7B5052602250C2700236A46C7
:1052F00068461380FFF796FF041E18D16B461B7893
:105300002B4216D10623280001AC237006F0BCFA0C
:1053100001212000FFF76AFF0400280006F0B0FA20
:10532000002C04D1013EF6B2002EDFD10124200072
:10533000FEBD1C003C403B42F9D00123280001ACDB
:10534000238006F0A1FA2900E3E70000F0B585B05C
:105350000500012401910092002928D0002A26D0BE
:10536000C3B2002B23D11E4B984220D8FFF7BAFFBF
:10537000041E1CD12800FFF795FF041E17D1FFF76C
:10538000B1FF041E13D1022703AE2B0CF0702D0ABF
:10539000380073703770B57006F076FA042130006B
:1053A000FFF724FF041E05D0380006F069FA20003C
:1053B00005B0F0BD802101984900FFF717FF0400F8
:1053C000380006F05DFA002CF1D1FFF74DFF041E06
:1053D000EDD1009B009A1B880133FF331380E6E771
:1053E000FEFF070073B50E001500012400291AD036
:1053F000002A18D080231B03984214D26A460B233C
:105400001370030C5370002340BA508002201371B4
:1054100006F03AFA05216846FFF7E8FE041E04D0BC
:10542000022006F02DFA200076BD05F03DF8300090
:10543000034AA9B205F06BF8441EA041C4B2EFE7DD
:1054400010270000F0B50026C7B01D004CAB1B783C
:10545000029101920400FC22310007A803930696F2
:105460000BF0F2FF04AB9F1DDE80134B01209C422A
:105470001FD8E3B2B3421CD180222000520006A9FB
:10548000FFF7B0FFB04214D106AA9446039B2A004E
:105490006344029918000BF0BBFF3A00200006A9F4
:1054A000FFF754FFB04204D1019B019A1B88EB180F
:1054B000138047B0F0BDC04600FF070013B56B4630
:1054C000DC1DB9230220237006F0DEF90121200043
:1054D000FFF78CFE0400022006F0D2F90122024BF5
:1054E00020001A7016BDC046100A002013B56B4686
:1054F000DC1DAB230220237006F0C6F90121200039
:10550000FFF774FE0400022006F0BAF9FFF75EFE12
:105510000022024B20001A7016BDC046100A00205F
:1055200013B56B46DC1D79230220237006F0ACF91D
:1055300001212000FFF75AFE0400022006F0A0F926
:105540000222024B20001A7016BDC046100A00202D
:1055500010B5074B1B78DAB2012B05D00020022AC8
:1055600004D1FFF7DDFF01E0FFF7C0FF10BDC0462B
:10557000100A002030B585B004F05EFF002302ACB5
:1055800022000193214B03CB03C20121080006F046
:1055900081FB200006F0FAF8022006F071F91C4B9E
:1055A0001B78002B0ED19F230220237006F06CF98C
:1055B00001212000FFF71AFE00280AD0022006F081
:1055C0005FF903E0FFF7C4FF0028ECD0012005B02D
:1055D00030BD01AD04F068FF04210E4A280004F03C
:1055E00096FF0400022006F04BF92B781F2BEDD11B
:1055F0006B78442BEAD1AB78022BE7D1E8782043D3
:10560000C0B2441EA041C0B2E1E7C0461443061038
:10561000100A00201027000070B504000D001600CD
:10562000002901D1012070BD002AFBD080231B037B
:105630009842F7D2074B1B78002B05D13200290086
:105640002000FFF7CFFEEEE7FFF782FF0028F5D03E
:10565000E8E7C046100A0020F0B587B005000E004C
:105660001C000492002904D101230393039807B07E
:10567000F0BD049B002BF7D0002CF5D00023049A3A
:1056800013802E4B1B78002B0DD1EBB2002B0FD1CA
:1056900080235B009C422AD131002800049AFFF746
:1056A00055FE03901DE0FFF753FF0028EDD0DBE728
:1056B000EAB25342DFB2DBB2A34200D9E7B2FF2124
:1056C0002800BBB2884300923100049A0593FFF78B
:1056D000B9FE059B0390E41AA4B2002C01D0002867
:1056E00002D0FFF78DFDC1E7ED19F619D0E70027CD
:1056F0009C421CD9230A05933B02ED18F618310091
:105700002800049AFFF722FE03900028E9D1013710
:10571000059AFBB29A42EFD8039A711C681C00925A
:10572000049AE3B2FF31FF30FFF78CFEB9E72300A4
:1057300031002800049A0097F6E7C046100A0020BE
:10574000F0B587B006001D000124019102920029E6
:105750002CD0002A2AD0002D28D000231380334BD0
:105760001B78002B03D0FFF7F3FE041E1ED1FF238E
:10577000FF22334016421CD0802149009AB2CB1A36
:105780009BB22F00AB4203D26B1EFF3BD3189FB2DC
:10579000FFF7A8FD041E09D1BB1903938023BA1992
:1057A0001B039A420ED90124FFF72AFD200007B0FF
:1057B000F0BD80232F1C5B009D4201D91C4B1F882C
:1057C000BFB2E5E7002FEED0022305AC23707303D0
:1057D00076BA5B0F02206680637006F055F82000F1
:1057E0000421FFF703FD041E03D0022006F048F851
:1057F000DAE739000198FFF7F9FC0400022006F00F
:105800003FF8002CD0D1FFF72FFD041ECCD1029B16
:10581000029A1B88ED1BFB18ADB21380002DC3D07C
:10582000019B039EDB190193A1E7C046100A0020EB
:10583000D4440610C3B270B505000E00002B02D090
:105840000124200070BD0029FAD080231B031B1AFD
:105850001B0A8B42F4D30E4B1B78002B08D1360267
:105860007619FFF73FFD041E07D0FFF7C9FCE8E7F4
:10587000FFF76EFE0028F2D0E2E72800FFF712FDE6
:1058800001350400FF350028EFD1AE42E9D1ECE745
:10589000100A002010B514001A00012C01D9802331
:1058A0001943230002F098FF431E9841C0B210BD77
:1058B00010B514001A00012C01D9802319432300CC
:1058C00002F01EFF431E9841C0B210BD0B0010B580
:1058D00001220F21FFF7DEFF431E9841C0B210BD29
:1058E000F0B589B007AC05912300022230210500F4
:1058F000FFF7D0FF002803D00126300009B0F0BD2B
:105900006378022200933621230028002778FFF7CE
:10591000C1FF0028F0D163780222019323783A2155
:10592000029328002300FFF7B5FF0028E4D1637835
:105930000222039323782821049328002300FFF7F1
:10594000A9FF061ED8D1019B20781D02029B7F086B
:105950001D4363782DB21B02184300B2401BFDF7B4
:10596000D3FC009B041C5808C01BFDF7CDFC011C98
:10597000201CFDF7B1F9039B041C1802049B18437B
:1059800000B2401BFDF7C0FC011C201CFCF7DAFF35
:10599000041C38B2FDF7B8FC011C201CFCF736FED5
:1059A0000C49FDF799F90C49041CFCF7C7FD0028C8
:1059B0000DD10021201CFCF7ADFD3300002803D1E0
:1059C000201CFCF7CFFD83B2059A138095E7FA23DC
:1059D0009B00F9E70000204100007A44F0B58BB04D
:1059E00009AC07912300022232210500FFF752FF84
:1059F000002803D0012738000BB0F0BD08ABDE1C37
:105A00003300012235212800FFF744FF0028F1D19F
:105A100033780422019323783C2102936378280091
:105A200003932300FFF736FF0028E3D1237866783D
:105A30000493E37802220593A3782A210693280091
:105A40002300FFF727FF071ED4D1019B029A1D02F6
:105A5000C0239B001D40637820781543049A1B02E5
:105A600036021643184336B200B2801BFDF74CFCD9
:105A7000C023019A041C9B0090011840039BED0871
:105A80001843C008401BFDF73FFC011C201CFDF71C
:105A900023F9059B041C1802069B184300B2801BC7
:105AA000FDF732FC011C201CFCF74CFF041C2800F5
:105AB000FDF72AFC011C201CFCF7A8FD0349FDF79B
:105AC0000BF9FDF701FC079B188094E700002041CB
:105AD00073B56B46DE1D0D00140033000122272133
:105AE000FFF7D8FE0122002806D133785910114063
:105AF00013402970237076BD1000FCE713B56B4688
:105B00000122202107330400FFF7C4FE01220028F0
:105B10000FD16B46D97980235B420B436946CB7129
:105B20006B46202120000733FFF7C2FE421E904142
:105B3000C2B2100016BD13B56B46012220210733F7
:105B40000400FFF7A7FE012200280ED16B467F213B
:105B5000DB7920000B406946CB716B46202107336F
:105B6000FFF7A6FE421E9041C2B2100016BD37B527
:105B70006B46DD1D0C002B0001222021FFF78AFE61
:105B8000002804D103222B78134023703EBD01204E
:105B9000FCE700000A0010B5010002480BF05CFCB5
:105BA000FEE7C046D644061037B505000C000129B3
:105BB00003D90F490F48FFF7EDFF6B460122202163
:105BC0000733FFF767FE012200280FD16B4604213F
:105BD000DB79A4008B431C436B462800DC711C312D
:105BE0000733FFF765FE421E9041C2B210003EBD72
:105BF000610200000345061037B505000C000329BB
:105C000004D9AE210E488900FFF7C4FF6B4601227C
:105C100020210733FFF73EFE012200280ED16B46FC
:105C2000D979032399436B460C43DC71202128006A
:105C30000733FFF73DFE421E9041C2B210003EBD49
:105C40000345061037B56B469D1D0C00DA1D290073
:105C5000FFF73EFF012806D02878002804D001284D
:105C600004D1207000203EBD2070FCE70120FAE73F
:105C700037B56B46DD1D0C002A00991DFFF728FF84
:105C8000012806D02878002804D0012804D12070EB
:105C900000203EBD2070FCE70120FAE707B56B4607
:105CA00007331A700122FFF703FE012800D00020FD
:105CB0000EBD10B5FFF7F2FF10BD130010B50122A5
:105CC000FFF7E8FD013843425841C0B210BD10B59E
:105CD000FFF7F3FF10BD000070B50D1CFE2104009E
:105CE0008905281CFCF720FC0121002806D1074962
:105CF000281CFCF719FC4142414102312000FFF70A
:105D00007BFF013843425841C0B270BD0000E04003
:105D1000012310B5042907D8044B595CFFF76CFF29
:105D2000013843424341DBB2180010BD4C45061018
:105D300010B5FFF7EDFF10BD37B56B46DD1D0C004C
:105D40002900FFF714FF012808D0287803280FD86E
:105D5000FCF706FA02050A0C002323603EBDFE2371
:105D60009B0500202360F9E7034BFAE7034BF8E7B4
:105D7000034B01202360F1E70000E04000004841B0
:105D8000000080BF10B5FFF7D7FF10BD37B56B46D9
:105D900000250C00991DDD80FFF7A2FD012808D029
:105DA0006B46D888FDF7F6FA0249FCF7CBFD206078
:105DB00028003EBD0000204113B56A460023D11DD6
:105DC0000400D371FFF782FD012806D06B462078CE
:105DD000DB79C01A431E9841C0B216BD10B5FFF75B
:105DE000EBFF10BD10B5837904000020012B0CD00F
:105DF000A3681B681B689B78834207D0A3680020B8
:105E00001B681A680123D370A37110BD2000FFF72F
:105E100075FE0128F2D1F8E737B56B4600250C0076
:105E2000991DDD80FFF7DAFD012809D06B460620B9
:105E3000185EFDF769FA0349FCF784FD206028002D
:105E40003EBDC0460000204110B504008079002806
:105E50000BD0A3681B681B689B78002B06D0002022
:105E6000A3681B681B68D870A07110BD2000FFF7E5
:105E700062FE0128F3D1F8E7836810B51B680400BF
:105E80001B681B78002B06D00020A3681B681B68CA
:105E90005870607110BDFFF7D7FF0128F4D1F9E702
:105EA00010B50400FFF788FF012801D1012010BDC3
:105EB0002000FFF740FE0128F8D001212000FFF765
:105EC00073FE0128F2D000212000FFF721FF0138E6
:105ED00043425841C0B2EAE7836810B51B6804002A
:105EE0001B685B78002B07D0A36800201B681A682A
:105EF00001231370637110BDFFF7D2FF0128F3D1A6
:105F0000F9E7836810B51B6804001B681B78002B39
:105F100007D0A36800201B681A68012353706371BF
:105F200010BDFFF7BDFF0128F3D1F9E710B5FFF76A
:105F300043FF10BD10B5FFF7FFFE10BD10B5FFF712
:105F4000E7FE10BD10B5FFF7C1FC013843425841D0
:105F5000C0B210BD10B5FFF7B9FC0138434258413B
:105F6000C0B210BD70B50D1CFE2104008905281CAF
:105F7000FCF7DAFA0121002806D10749281CFCF7B2
:105F8000D3FA4142414102312000FFF735FE01388A
:105F900043425841C0B270BD0000E04010B5837963
:105FA00004000020012B0CD0A3681B681B68DB7861
:105FB000834207D0A36800201B681A6801239370EE
:105FC000A37110BD2000FFF799FD0128F2D1F8E779
:105FD00010B50400807900280BD0A3681B681B68EB
:105FE000DB78002B06D00020A3681B681B68987024
:105FF000A07110BD2000FFF79EFD0128F3D1F8E746
:10600000836810B51B6804001B685B78002B06D002
:106010000020A3681B681B681870607110BDFFF733
:10602000D7FF0128F4D1F9E710B502F069FB43422C
:106030005841C0B210BD10B502F0CEFB43425841EA
:10604000C0B210BD0A00012310B50F21FFF7F3FF06
:10605000431E9841C0B210BD37B56A460C000123FB
:10606000202107320500FFF7E6FF002810D06B461D
:10607000D9790F236A4619406B460C43DC71202105
:10608000012328000732FFF7CFFF431E9841C0B21B
:106090003EBD10B50A000C0001232021FFF7CBFF05
:1060A000002804D00F22012023789343237010BDD1
:1060B00037B56A460C000123252107320500FFF79A
:1060C000BAFF002810D06B46D97930236A4699432D
:1060D0006B460C43DC712521012328000732FFF7B2
:1060E000A3FF431E9841C0B23EBD10B50A000C008C
:1060F00001232521FFF79FFF002804D03022012033
:1061000023781340237010BD37B56A460C00012375
:10611000212107320500FFF78EFF002810D06B46C3
:10612000D97908236A4699436B460C43DC712121D7
:10613000012328000732FFF777FF431E9841C0B2C2
:106140003EBD70B506000D00282401232A00210061
:106150003000FFF770FF00280FD0611C01233000D2
:106160006A1CC9B2FFF767FF002806D00234E4B208
:1061700002352E2CE9D1012070BD0020FCE710B5BE
:106180000A000C0001232021FFF755FF002804D04E
:106190000322012023781340237010BD37B56A46CF
:1061A0000C000123202107320500FFF744FF0028DF
:1061B00010D06B46D9790C236A4699436B460C4341
:1061C000DC712021012328000732FFF72DFF431E39
:1061D0009841C0B23EBD10B50A000C000123202139
:1061E000FFF729FF002804D00C2201202378134058
:1061F000237010BD37B56A460C00012322210732F7
:106200000500FFF718FF002810D06B46D97910233E
:106210006A4699436B460C43DC7122210123280016
:106220000732FFF701FF431E9841C0B23EBD73B570
:1062300016006A460D000123232107320400FFF7F0
:10624000FAFE002812D06B46DA7913002B43002E99
:1062500001D11300AB436A462321D37120000123EF
:106260000732FFF7E1FE431E9841C0B276BD73B519
:1062700016006A460D000123242107320400FFF7AF
:10628000DAFE002812D06B46DA7913002B43002E79
:1062900001D11300AB436A462421D37120000123AE
:1062A0000732FFF7C1FE431E9841C0B276BD10B55C
:1062B0000A000C0001232721FFF7BDFE002803D0B0
:1062C000012023780340237010BD10B50A000C0094
:1062D00001232721FFF7AFFE002804D0022201206E
:1062E00023781340237010BD10B50A000C00012361
:1062F0002721FFF7A0FE002804D0042201202378E4
:106300001340237010BD10B50A000C000123272193
:10631000FFF791FE002804D00822012023781340C3
:10632000237010BD10B50A000C0001232721FFF7D0
:1063300082FE002804D0102201202378134023700D
:1063400010BD10B50A000C0001232721FFF773FED2
:10635000002804D04022012023781340237010BD70
:1063600010B50A000C0001232721FFF764FE002866
:1063700004D07F22012023789343237010BD37B5CA
:106380006A460D0001232E2107320400FFF753FE59
:10639000002811D06B46D9791F236A4699431D40C6
:1063A0006B462943D971200001232E210732FFF7C4
:1063B0003BFE431E9841C0B23EBD37B56A460C0055
:1063C00001232E2107320500FFF735FE002810D0EB
:1063D0006B46D9791F236A4619406B460C43DC7122
:1063E0002E21012328000732FFF71EFE431E98418D
:1063F000C0B23EBD10B50A000C0001232F21FFF7EB
:106400001AFE002804D03F22012023781340237075
:1064100010BD10B50A000C0001232F21FFF70BFE61
:10642000002804D04022012023781340237010BD9F
:1064300037B56A460D000123302107320400FFF70B
:10644000FAFD002811D06B46D9791F236A4699437B
:106450001D406B462943D9712000012330210732AA
:10646000FFF7E2FD431E9841C0B23EBD37B56A4614
:106470000C000123302107320500FFF7DCFD002866
:1064800010D06B46D97960236A4699436B460C431A
:10649000DC713021012328000732FFF7C5FD431EC0
:1064A0009841C0B23EBD37B56A460D000123312187
:1064B00007320400FFF7BFFD002811D06B46D979E1
:1064C0001F236A4699431D406B462943D97120001A
:1064D000012331210732FFF7A7FD431E9841C0B2C7
:1064E0003EBD37B56A460C00012331210732050055
:1064F000FFF7A1FD002810D06B46D9791F236A460B
:1065000019406B460C43DC7131210123280007320E
:10651000FFF78AFD431E9841C0B23EBD37B56A46BB
:106520000D000123322107320400FFF784FD00280B
:1065300011D06B46D9791F236A4699431D406B469B
:106540002943D9712000012332210732FFF76CFD66
:10655000431E9841C0B23EBD37B56A460C000123C8
:10656000322107320500FFF766FD002810D06B4688
:10657000D97920236A4699436B460C43DC7132215A
:10658000012328000732FFF74FFD431E9841C0B298
:106590003EBD37B56A460C000123322107320500A3
:1065A000FFF749FD002810D06B46D97940236A4691
:1065B00099436B460C43DC713221012328000732DA
:1065C000FFF732FD431E9841C0B23EBD37B56A4663
:1065D0000C000123322107320500FFF72CFD0028B3
:1065E00010D06B46D9797F236A4619406B460C431D
:1065F000DC713221012328000732FFF715FD431E0D
:106600009841C0B23EBD37B56A460D000123332123
:1066100007320400FFF70FFD002811D06B46D9792F
:1066200003236A4699431D406B462943D9712000D4
:10663000012333210732FFF7F7FC431E9841C0B214
:106640003EBD37B56A460C000123332107320500F1
:10665000FFF7F1FC002812D06B460C21DB79A40077
:106660008B430C401C436A466B462800DC710732A2
:1066700001232731FFF7D8FC431E9841C0B23EBD2D
:1066800037B56A460D000123332107320400FFF7B6
:10669000D2FC002811D06B46D9790F236A461940E5
:1066A0006B462D012943D971200001233321073284
:1066B000FFF7BAFC431E9841C0B23EBD37B56A46EB
:1066C0000C000123342107320500FFF7B4FC002839
:1066D00010D06B46D9793F236A4699436B460C43E9
:1066E000DC713421012328000732FFF79DFC431E93
:1066F0009841C0B23EBD37B56A460C000123342133
:1067000007320500FFF797FC002810D06B46D979B7
:106710007F236A4619406B460C43DC713421012308
:1067200028000732FFF780FC431E9841C0B23EBDEF
:1067300037B56A460C000123352107320500FFF703
:106740007AFC002812D06B466021DB7964018B4310
:106750000C401C436A466B462800DC71073201235B
:106760002B39FFF761FC431E9841C0B23EBD37B5DF
:106770006A460D000123352107320400FFF75BFC58
:10678000002811D06B46D9797F236A4619406B46A1
:10679000ED012943D9712000012335210732FFF78C
:1067A00043FC431E9841C0B23EBD37B56A460D005A
:1067B0000123362107320400FFF73DFC002811D0E9
:1067C0006B46D97907236A4699431D406B46294396
:1067D000D9712000012336210732FFF725FC431E23
:1067E0009841C0B23EBD37B56A460D00012336213F
:1067F00007320400FFF71FFC002811D06B46D9793F
:1068000007236A4619406B46ED002943D9712000E1
:10681000012336210732FFF707FC431E9841C0B21F
:106820003EBD10B50A000C0001233A21FFF703FC1E
:10683000002803D0012023780340237010BD10B539
:106840000A000C0001233A21FFF7F5FB002804D0D1
:106850000222012023781340237010BD10B50A00D6
:106860000C0001233A21FFF7E6FB002804D00422A4
:10687000012023781340237010BD10B50A000C00CE
:1068800001233A21FFF7D7FB002804D0082201207A
:1068900023781340237010BD10B50A000C000123AB
:1068A0003A21FFF7C8FB002804D0102201202378EA
:1068B0001340237010BD10B50A000C0001233A21CB
:1068C000FFF7B9FB002804D02022012023781340D1
:1068D000237010BD37B56A460C0001233F210732F3
:1068E0000500FFF7A8FB002810D06B46D9792023BC
:1068F0006A4699436B460C43DC713F210123280013
:106900000732FFF791FB431E9841C0B23EBD0A001B
:10691000012310B53B21FFF78EFB431E9841C0B207
:1069200010BD10B5002900D01021FFF763FC4342D1
:106930005841C0B210BD10B5FFF721FD4342584188
:10694000C0B210BD10B5FFF755FD43425841C0B26B
:1069500010BD37B56B4600250C00D91DDD71FFF762
:1069600049FD0123A84205D06B46DB79AB4203D138
:106970000122227018003EBD2B002570FAE70000AE
:10698000F0B505008BB008AE0C000622244930009B
:106990000AF03EFD31002800FFF7D3FB002802D1AA
:1069A00001200BB0F0BD7378280000933378019379
:1069B000F3780293B378039373790493337905934F
:1069C00006AB9F1D3900FFF706FC0028E8D006AB98
:1069D000DE1D31002800FFF7D2FB0028E0D008259B
:1069E000009B05981902019BC918029B09B21A0263
:1069F000039BD218049B12B21B021B1838781BB2DF
:106A0000A8433578284307D1091112111B11002022
:106A100021806280A380C4E7891092109B10F6E762
:106A20001C430610F7B56B465E1D0C0031000500D7
:106A3000FFF7D1FB002801D1012029E06B46280097
:106A4000991DFFF79CFB0028F6D06B46DF1D39002F
:106A50002800FFF74AFB0028EED0082230783B7868
:106A600090436A469279104313D1202B0ED006D85A
:106A7000002B08D0102B17D00E4B2360DCE7302BF7
:106A8000FAD10D4B03E00D4B236011E00C4B23605A
:106A9000FEBD202BF7D005D8002B07D0102BEBD153
:106AA000084BF1E7302BE7D1074BEDE7074A2260AF
:106AB0000020EDE7000080BF23DBF94023DB793FB6
:106AC00023DB794023DBF93E23DBF93F23DB793EEF
:106AD0007FB5002302AD0C00290006000193FFF7EB
:106AE0004FFF012802D1012004B070BD300001A980
:106AF000FFF798FF0128F6D0019E0023E85EFCF71F
:106B000003FC311CFCF7E8F8FCF7DEFB20600223F5
:106B1000E85EFCF7F9FB311CFCF7DEF8FCF7D4FB70
:106B200060600423E85EFCF7EFFB311CFCF7D4F84F
:106B3000FCF7CAFBA0600020D6E7000037B56B4623
:106B4000DD1D0C002900FFF7D0FA0123002812D028
:106B50002B78202B16D007D8002B09D0102B0CD067
:106B6000094B2360012306E0302BF9D1832305E094
:106B70008022D205226018003EBD8123DB05236000
:106B80000023F8E78223F9E7000080BF37B56B46A2
:106B9000DD1D0C002900FFF73CFC0123002807D075
:106BA0002B78002B06D00122402B05D10023227028
:106BB00018003EBD2370FBE71300F9E737B56B46BD
:106BC000DD1D0C002900FFF7CBFB0123002807D0B7
:106BD0002B78002B06D00122802B05D100232270B8
:106BE00018003EBD2370FBE71300F9E737B56B468D
:106BF000DD1D0C002900FFF75EFE0123002807D0F1
:106C00002B78002B06D00122202B05D100232270E7
:106C100018003EBD2370FBE71300F9E737B56B465C
:106C2000DD1D0C002900FFF737FE0123002807D0E7
:106C30002B78002B06D00122102B05D100232270C7
:106C400018003EBD2370FBE71300F9E737B56B462C
:106C5000DD1D0C002900FFF710FE0123002807D0DE
:106C60002B78002B06D00122082B05D1002322709F
:106C700018003EBD2370FBE71300F9E737B56B46FC
:106C8000DD1D0C002900FFF7E9FD0123002807D0D6
:106C90002B78002B06D00122042B05D10023227073
:106CA00018003EBD2370FBE71300F9E737B56B46CC
:106CB000DD1D0C002900FFF7C2FD0123002807D0CD
:106CC0002B78002B06D00122022B05D10023227045
:106CD00018003EBD2370FBE71300F9E737B56B469C
:106CE000DD1D0C002900FFF79CFD0123002806D0C4
:106CF0002B78002B05D0012B05D123700023180021
:106D00003EBD2370FBE70123F9E737B56B46DD1D78
:106D10000C002900FFF7E8FA0123002807D02B78A0
:106D2000002B06D00122042B05D10023227018006D
:106D30003EBD2370FBE71300F9E770B50C1C802102
:106D40000500C905201CFBF7EFFB0021884210D18C
:106D50008121201CC905FBF7E7FB1021002808D181
:106D60008221201CC905FBF7DFFB2021002800D170
:106D700010312800FFF79CF943425841C0B270BD62
:106D8000012310B5042906D8044B595CFFF790F98C
:106D900043424341DBB2180010BDC04656450610C1
:106DA00010B5FFF76DFC43425841C0B210BD10B59D
:106DB000FFF747FC43425841C0B210BD10B5FFF782
:106DC00022FC43425841C0B210BD37B56B46DD1DB1
:106DD0000C002900FFF7A6FA0123002807D02B7822
:106DE000002B06D00122102B05D1002322701800A1
:106DF0003EBD2370FBE71300F9E737B56B46DD1D99
:106E00000C002900FFF77FFA0123002807D02B7818
:106E1000002B06D00122082B05D100232270180078
:106E20003EBD2370FBE71300F9E710B5FFF746FC02
:106E300043425841C0B210BD37B56B46DD1D0C0052
:106E40002900FFF77EFA0123002807D02B78002BBA
:106E500006D00122402B05D10023227018003EBD30
:106E60002370FBE71300F9E710B5FFF79EFC4342E0
:106E70005841C0B210BD37B56B46DD1D0C0029006E
:106E8000FFF723FA0123002807D02B78002B06D028
:106E90000122022B05D10023227018003EBD237071
:106EA000FBE71300F9E710B5FFF731FD4342584106
:106EB000C0B210BD37B56B4600250C00D91DDD7181
:106EC000FFF7F5F90123A84203D06B46DB79237065
:106ED0002B0018003EBD07B513006A460732137039
:106EE0000123FFF7A1F843425841C0B20EBD012370
:106EF00010B5FFF7A0F843425841C0B210BD0000E2
:106F0000F7B56B469E1D0C0031000500FFF763F9D5
:106F1000002801D1012024E06B46DF1D3900280044
:106F2000FFF7B7F80028F5D03878502829D00FD8C7
:106F3000202820D006D8002811D0102812D0124BBB
:106F40002360E7E730281AD04028F8D10F4B13E030
:106F50008028F4D0F3D86028F1D10D4B0CE0002349
:106F60002360FEBD3278082AE9D80123934012221B
:106F7000FF321342E3D0074B00202360F1E7064BBA
:106F8000FAE7064BF8E7C046000080BF0000484221
:106F900000004843000048410000C8410000C842CA
:106FA00010B5FFF74FF843425841C0B210BD13B5BA
:106FB0006A460023D11D0400D371FFF7F1FF0128B9
:106FC00006D06B462078DB79C01A431E9841C0B2C8
:106FD00016BD10B52021FFF77DFC43425841C0B2D9
:106FE00010BD4A1E914110B5CAB202210400FFF73C
:106FF0003EF903000120002B02D02000FFF7E9FF3B
:1070000010BD4A1E914110B5CAB202210400FFF71B
:107010000EF903000120002B02D02000FFF7D9FF5A
:1070200010BD4A1E914110B5CAB204210400FFF7F9
:10703000FEF803000120002B02D02000FFF7C9FF5B
:1070400010BD10B560290DD006D820230A009A4340
:1070500008D00123180010BD40230A009A433F3B8B
:10706000802AF7D1FFF7A9F943424341DBB2F1E7A8
:10707000F7B5130006000C000125002908D00C22EA
:10708000002501275A438B180193019BA34201D18C
:107090002800FEBD21003000FFF71AFD002800D0B7
:1070A0003D000C34F1E7000010B58379012B0AD1C3
:1070B000042906D8104B595CFEF7CEFF43424341EA
:1070C000DBB2180010BD83681A6801230429F8D8C0
:1070D0000800FBF745F803070B0D0F00074B136083
:1070E0000B00EEE7064B13600023EAE7054BFAE7D7
:1070F000054BF8E7054BF6E75145061000004841FF
:107100000000C841000048420000C8420000484357
:1071100070B50C1C05002D49201CFBF705FA102149
:10712000002831D12A49201CFBF7FEF92021002834
:107130002AD12849201CFBF7F7F93021002823D158
:107140002549201CFBF7F0F9402100281CD12349D8
:10715000201CFBF7E9F95021002815D12049201CFB
:10716000FBF7E2F9602100280ED11E49201CFBF735
:10717000DBF97021002807D11B49201CFBF7D4F94B
:107180008021002800D110312800FEF765FF00287B
:1071900001D1012070BD0D49201CFBF7C5F9002865
:1071A0000DD10F49201CFBF7C9F90028F2D00421AA
:1071B0002800FEF7F3FF43425841C0B2EAE700213E
:1071C0002800FEF7EBFF0028EBD1E2E7CDCCCC3F67
:1071D000000048410000C841000048420000C84289
:1071E000000048430000C8430000484410B58379BC
:1071F00004000020012B0AD0A36820001B68196836
:10720000FFF786FF012802D001230020A37110BDE3
:1072100070B583790C1C012B06D1FFF779FF01387B
:1072200043425841C0B270BD83682249201C1D688A
:10723000FBF77AF900282DD11F49201CFBF774F9C0
:10724000002829D11D49201CFBF76EF9002825D103
:107250001B49201CFBF768F9002821D11949201C83
:10726000FBF762F900281DD11749201CFBF75CF9D8
:10727000002819D11549201CFBF756F9002815D113
:107280001349201CFBF750F9002811D1114B0020A5
:107290002B60C8E7074BFAE7074BF8E7074BF6E721
:1072A000074BF4E7074BF2E7074BF0E7074BEEE736
:1072B000074BECE7CDCCCC3F000048410000C84173
:1072C000000048420000C842000048430000C84394
:1072D000000048440000C84410B5FFF799FF10BDF6
:1072E00010B5002220210400FEF7A1FF002801D1E3
:1072F000012010BD00212000FFF71AFA0028F7D066
:1073000000212000FFF7DAF90028F1D00021200049
:10731000FFF7E0FA43425841C0B2EAE710B512491C
:107320000400FFF775FF012801D1012010BD0021E5
:107330002000FEF733FF0028F7D000212000FEF7E1
:10734000B7FE0028F1D060212000FFF78FF8002859
:10735000EBD0012280212000FEF769FF0028E4D055
:107360002000FFF736FEE1E70000484270B5040058
:107370000D00FFF75DF8002801D1012070BD290044
:107380002000FFF790F80028F7D029002000FFF731
:10739000C5F843425841C0B2F0E710B500220821B9
:1073A0000400FEF744FF002801D1012010BD002198
:1073B0002000FFF7A0F90028F7D000212000FFF7F8
:1073C00037F80028F1D000212000FFF76CF80028E2
:1073D000EBD000212000FFF7A1F80028E5D0002124
:1073E0002000FFF710F90028DFD000212000FFF770
:1073F00028F90028D9D000212000FFF741F9002802
:10740000D3D000212000FFF7A7F80028CDD000211D
:107410002000FFF7BEF80028C7D000212000FFF7AA
:10742000D5F80028C1D000212000FFF753FA4342CD
:107430005841C0B2BAE710B5002240210400FEF75F
:10744000F6FE002801D1012010BD00212000FEF72A
:10745000EFFF0028F7D000212000FFF724F80028D4
:10746000F1D000212000FFF759F80028EBD00021CF
:107470002000FFF771F80028E5D000212000FFF779
:1074800088F80028DFD000212000FFF79FF80028AF
:10749000D9D000212000FFF71DFA43425841C0B265
:1074A000D2E7000010B532490400FFF7B1FE012811
:1074B00001D1012010BD00212000FEF76FFE002841
:1074C000F7D000212000FEF7F3FD0028F1D00C21B9
:1074D0002000FEF7ADFF0028EBD00C212000FEF7C6
:1074E000E2FF0028E5D0E0212000FEF7FAFF0028A7
:1074F000DFD00C212000FFF711F80028D9D020217F
:107500002000FFF729F80028D3D040212000FFF702
:1075100040F80028CDD080212000FFF757F8002840
:10752000C7D001212000FFF76EF80028C1D001214B
:107530002000FFF786F80028BBD002212000FFF7CB
:107540009FF80028B5D080212000FFF7D4F800284C
:10755000AFD0012208212000FEF769FE0028A8D044
:1075600020212000FFF7B6F943425841C0B2A1E7FD
:107570000000484210B529490400FFF749FE0128E0
:1075800001D1012010BD00212000FEF707FE0028D8
:10759000F7D000212000FEF78BFD0028F1D00C2150
:1075A0002000FEF745FF0028EBD00C212000FEF75D
:1075B0007AFF0028E5D0E0212000FEF792FF0028A6
:1075C000DFD00C212000FEF7A9FF0028D9D0202110
:1075D0002000FEF7C1FF0028D3D040212000FEF795
:1075E000D8FF0028CDD080212000FEF7EFFF002833
:1075F000C7D000212000FFF77EF80028C1D001226B
:1076000040212000FEF713FE0028BAD020212000E0
:10761000FFF760F943425841C0B2B3E70000484267
:1076200010B51A490400FFF7F3FD012801D101202C
:1076300010BD00212000FEF7B1FD0028F7D0002189
:107640002000FEF735FD0028F1D001212000FFF7D2
:107650006FF80028EBD00F212000FFF72FF800284B
:10766000E5D0012220212000FEF7E1FD0028DED038
:1076700010212000FEF7BEFD0028D8D020212000D8
:10768000FFF728F943425841C0B2D1E70000484211
:1076900010B51A490400FFF7BBFD012801D10120F4
:1076A00010BD00212000FEF779FD0028F7D0002151
:1076B0002000FEF7FDFC0028F1D000212000FFF79C
:1076C00056F80028EBD008212000FFF78CF800289E
:1076D000E5D001212000FFF7C7FB0128DFD0012200
:1076E00010212000FEF7A3FD0028D8D02021200083
:1076F000FFF7F0F843425841C0B2D1E700004842DA
:1077000010B504008079002807D0A368200019680C
:10771000FFF7F6FB012801D1012010BD0021200058
:10772000FEF79AFC0028F7D00020A071F5E78368E7
:1077300070B504001D68FFF73AFC012801D1012053
:1077400070BD2000FFF7DCFF0128F8D000230020E7
:107750002B606071F4E7000010B50400FFF727FC10
:10776000012801D1012010BD08212000FEF7CCFC2A
:107770000028F7D000212000FEF71FFE0028F1D0DE
:1077800000212000FEF768FC0028EBD00421200037
:10779000FEF704FD0028E5D0A368064A1B68002117
:1077A00020001A60FFF7ECFA0128DBD0012300204B
:1077B0006371D8E70000C84210B5002280210400A0
:1077C000FEF735FD002801D1012010BD0021200069
:1077D000FEF74CFE0028F7D000212000FFF77AF8D2
:1077E00043425841C0B2F0E710B500221021040016
:1077F000FEF71DFD002801D1012010BD0021200051
:10780000FEF7B5FF0028F7D000212000FEF7CDFFDE
:107810000028F1D000212000FFF75CF843425841D6
:10782000C0B2EAE710B500F06BFF43425841C0B266
:1078300010BD10B500F0D0FF43425841C0B210BD9A
:107840000A00012310B54F21FFF7F3FF431E9841B3
:10785000C0B210BD37B56A460C0001236021073263
:107860000500FFF7E6FF002810D06B46D979032307
:107870006A4699436B460C43DC7160210123280062
:107880000732FFF7CFFF431E9841C0B23EBD37B568
:107890006A460C000123602107320500FFF7C9FF8B
:1078A000002810D06B46D9790C236A4699436B4661
:1078B0000C43DC716021012328000732FFF7B2FF7F
:1078C000431E9841C0B23EBD10B50A000C00012312
:1078D0006021FFF7AEFF002804D00C22012023789E
:1078E0001340237010BD37B56A460C000123622196
:1078F00007320500FFF79DFF002810D06B46D979AD
:1079000002236A4699436B460C43DC7162210123D2
:1079100028000732FFF786FF431E9841C0B23EBDE4
:1079200037B56A460C000123622107320500FFF7D4
:1079300080FF002810D06B46D97910236A469943FE
:107940006B460C43DC716221012328000732FFF7EC
:1079500069FF431E9841C0B23EBD0A00012310B525
:107960006721FFF766FF431E9841C0B210BD70B596
:1079700006000D00682401232A0021003000FFF7D3
:1079800058FF00280FD0611C012330006A1CC9B2C7
:10799000FFF74FFF002806D00234E4B202356E2C08
:1079A000E9D1012070BD0020FCE7FF239B050020EA
:1079B0000B607047014B00200B607047000048428D
:1079C000002070470020704737B56B46DD1D0C0066
:1079D0002900FFF7C2FF0123002808D029780F22D1
:1079E0000B001340114204D0012323700023180020
:1079F0003EBD2370FBE707B513006A4607321370DC
:107A00000123FFF70FFF43425841C0B20EBD0123CF
:107A100010B5FFF70EFF43425841C0B210BD000041
:107A200070B50C1C05000E49201CFAF77DFD0021E5
:107A300088420ED10B49201CFAF776FD042100285C
:107A400007D10949201CFAF76FFD0821002800D151
:107A500004312800FFF71BFF43425841C0B270BDFC
:107A6000000020410000A04100004842012310B561
:107A7000042906D8044B595CFFF709FF43424341F0
:107A8000DBB2180010BDC0465B45061037B56B462B
:107A9000DD1D0C002900FFF717FF0123002811D07E
:107AA0002B78082B14D007D8002B09D0042B0BD02F
:107AB000084B2360012305E00C2BF9D1064B04E0B1
:107AC000064A226018003EBD054B23600023F9E7FB
:107AD000044BFAE7000080BF0000C84200002041CC
